:1000000026C040C03FC03EC03DC0DFC13BC03AC07B
:1000100039C038C037C036C036C034C033C0000025
:10002000000037000000000038000000000036002B
:10003000020202020202020202020102040810206D
:100040002004100801020000040000000000112438
:100050001FBECFE5D2E0DEBFCDBF10E0A0E6B0E02E
:10006000ECEBFAE002C005900D92A236B107D9F789
:1000700010E0A2E6B0E001C01D92A137B107E1F7A0
:10008000F6D21AC5BDCF1F920F920FB60F92112450
:100090008F93809162008F5F8093620080916300F4
:1000A0008F5F809363008F910F900FBE0F901F9012
:1000B000189580E060E05ED281E060E05BD282E093
:1000C00060E058D283E060E055D284E060E052D234
:1000D00080E060E08ED281E060E08BD282E060E080
:1000E00088D283E060E085D284E060E082D23798F5
:1000F000479A85B7806285BF889585B78F7D85BF14
:10010000089582E060E036D282E061E072D2389AEF
:100110003D9A86B1836886B920E030E090E0369A57
:100120003699FECF85B1280F311D9F5F9330B9F707
:10013000C90163E070E099D4CB0108958CE087B9E0
:100140008EE591E0F1D186B1806C86B93699FECF0B
:1001500064B175B180E090E067D39B01AC016AE9BE
:1001600079EA8CE894E4F8D208954F925F926F9206
:100170007F928F929F92AF92BF92CF92DF92EF9237
:10018000FF920F934B015C0129013A01D7DFA501D2
:10019000940179D220E030E048EC52E4FBD36B01CB
:1001A0007C01C301B201A50194016DD29B01AC0198
:1001B000C701B601D1D26B017C01002329F120E0F7
:1001C00030E040E050E0C4D288235CF40F2EF0E031
:1001D000CF2EF0E0DF2EF0E0EF2EF0E0FF2EF02D3E
:1001E00013C0C701B60120E030E048EC52E4CED3A2
:1001F000181654F40F2EF0E0CF2EF0E0DF2EF8ECBE
:10020000EF2EF2E4FF2EF02DB601C7010F91FF9003
:10021000EF90DF90CF90BF90AF909F908F907F90A6
:100220006F905F904F90089544DF8091620082301C
:1002300008F448C010926200809163008A3080F018
:10024000109263005EDF909361008093600076DF20
:1002500060936400709365008093660090936700DC
:1002600080916000909161004F9764F1609164000B
:1002700070916500809166009091670020E030E009
:1002800040E450E483D38823ECF080E061E072D155
:1002900081E061E06FD183E061E06CD184E061E0F6
:1002A00069D180E061E0A5D181E061E0A2D183E085
:1002B00061E09FD184E061E09CD16AEF70E080E072
:1002C00090E0D7D008959F92AF92BF92CF92DF92E5
:1002D000EF92FF920F931F9331DF6093640070934E
:1002E0006500809366009093670080E061E042D1F2
:1002F00081E061E03FD183E061E03CD184E061E0F6
:1003000039D1992423C080E061E073D181E061E0BC
:1003100070D183E061E06DD184E061E06AD16AEF81
:1003200070E080E090E0A5D080E060E062D181E004
:1003300060E05FD183E060E05CD184E060E059D1AF
:100340006AEF70E080E090E094D0939460E070E019
:1003500080E490E42DEC3CEC4CE850E400E005DF58
:100360005B016C01692D70E0882777FD8095982FDF
:100370005DD27B018C01C601B50120E030E040E296
:1003800051E4EAD19B01AC01C801B701E1D187FD7D
:10039000BACF68EB7BE080E090E06BD081B58660FF
:1003A00081BD81B5806481BD81B581BD789485B7FB
:1003B000877E806185BF1F910F91FF90EF90DF9046
:1003C000CF90BF90AF909F9008951F920F920FB65D
:1003D0000F9211242F933F934F935F936F937F93CB
:1003E0008F939F93AF93BF9320916C0030916D00DA
:1003F00040916E0050916F0070917000DA01C90158
:100400004096A11DB11D672F605D6D3730F06D57AF
:10041000DA01C9014196A11DB11D6093700080935E
:100420006C0090936D00A0936E00B0936F0080916C
:10043000680090916900A0916A00B0916B000196EC
:10044000A11DB11D8093680090936900A0936A007C
:10045000B0936B00BF91AF919F918F917F916F91FE
:100460005F914F913F912F910F900FBE0F901F9072
:1004700018959B01AC017FB7F8948091680090912A
:100480006900A0916A00B0916B0062B708B601FEE6
:1004900005C06F3F19F00196A11DB11D7FBFBA2F96
:1004A000A92F982F8827860F911DA11DB11D66E0E9
:1004B000880F991FAA1FBB1F6A95D1F7BC012EC0D8
:1004C000FFB7F8948091680090916900A0916A004C
:1004D000B0916B00E2B708B601FE05C0EF3F19F01E
:1004E0000196A11DB11DFFBFBA2FA92F982F8827F4
:1004F0008E0F911DA11DB11DE6E0880F991FAA1F47
:10050000BB1FEA95D1F7861B970B885E9340C0F21C
:10051000215030404040504068517C4F21153105FA
:100520004105510569F60895019739F0019729F0C1
:10053000880F991F01970197F1F7089578948AB56C
:1005400082608ABD8AB581608ABD83B7826083BFBD
:1005500083B7816083BF89B7826089BF80B78260BB
:1005600080BF329A319A309A379A08958CB5806458
:100570008CBD0895CF93DF93482F50E0CA01865C6D
:100580009F4FFC013491405D5F4FFA0184918823B5
:1005900069F190E0880F991FFC01E25EFF4FA59181
:1005A000B491FC01EC5DFF4FC591D491662351F4E9
:1005B0002FB7F8948C91932F909589238C938881F1
:1005C00089230BC0623061F42FB7F8948C91932F7C
:1005D000909589238C938881832B88832FBF06C0B5
:1005E0009FB7F8948C91832B8C939FBFDF91CF9111
:1005F0000895482F50E0CA018C5B9F4FFC01249165
:10060000CA01865C9F4FFC019491405D5F4FFA01E7
:100610003491332359F12223A9F0223081F0233081
:1006200018F4213079F408C0233011F0243051F44B
:100630008CB58F7D8CBD06C08AB58F7702C08AB518
:100640008F7D8ABDE32FF0E0EE0FFF1FEC5DFF4FC3
:10065000A591B4912FB7F894662321F48C919095CD
:10066000892302C08C91892B8C932FBF0895CF933F
:10067000DF9364DF7BDF27DEC0E0D0E0D5DD2097AD
:10068000E9F3BEDCFBCF5058BB27AA270ED044C1EC
:1006900035D130F03AD120F031F49F3F11F41EF4FF
:1006A0002AC10EF4E095E7FB20C1E92F46D180F383
:1006B000BA17620773078407950718F071F49EF55F
:1006C0005EC10EF4E0950B2EBA2FA02D0B01B901DF
:1006D00090010C01CA01A0011124FF27591B99F0B8
:1006E000593F50F4503E68F11A16F040A22F232FC4
:1006F000342F4427585FF3CF469537952795A79514
:10070000F0405395C9F77EF41F16BA0B620B730BBA
:10071000840BBAF09150A1F0FF0FBB1F661F771F2B
:10072000881FC2F70EC0BA0F621F731F841F48F4E0
:10073000879577956795B795F7959E3F08F0B3CF66
:100740009395880F08F09927EE0F97958795089550
:10075000A8D008F481E008950CD0DEC0D6D040F0D7
:10076000CDD030F021F45F3F19F0BFC0511108C166
:10077000C2C0E3D098F39923C9F35523B1F3951B75
:10078000550BBB27AA2762177307840738F09F5FB2
:100790005F4F220F331F441FAA1FA9F333D00E2E21
:1007A0003AF0E0E830D091505040E695001CCAF78E
:1007B00029D0FE2F27D0660F771F881FBB1F261753
:1007C00037074807AB07B0E809F0BB0B802DBF0126
:1007D000FF2793585F4F2AF09E3F510568F085C070
:1007E000CFC05F3FECF3983EDCF386957795679535
:1007F000B795F7959F5FC9F7880F911D96958795D7
:1008000097F90895E1E0660F771F881FBB1F6217F5
:1008100073078407BA0720F0621B730B840BBA0BB3
:10082000EE1F88F7E0950895E89409C097FB3EF421
:1008300090958095709561957F4F8F4F9F4F99232D
:10084000A9F0F92F96E9BB279395F69587957795AB
:100850006795B795F111F8CFFAF4BB0F11F460FF6B
:100860001BC06F5F7F4F8F4F9F4F16C0882311F0C3
:1008700096E911C0772321F09EE8872F762F05C0D7
:10088000662371F096E8862F70E060E02AF09A9572
:10089000660F771F881FDAF7880F9695879597F967
:1008A0000895990F0008550FAA0BE0E8FEEF161601
:1008B0001706E807F907C0F012161306E407F50754
:1008C00098F0621B730B840B950B39F40A2661F0C8
:1008D000232B242B252B21F408950A2609F4A1406B
:1008E000A6958FEF811D811D089597F99F6780E878
:1008F00070E060E008959FEF80EC089500240A9472
:100900001616170618060906089500240A941216EA
:100910001306140605060895092E0394000C11F41D
:10092000882352F0BB0F40F4BF2B11F460FF04C0CA
:100930006F5F7F4F8F4F9F4F089557FD9058440F23
:10094000551F59F05F3F71F04795880F97FB991F2E
:1009500061F09F3F79F087950895121613061406EB
:10096000551FF2CF4695F1DF08C016161706180678
:10097000991FF1CF86957105610508940895E89453
:10098000BB2766277727CB0197F908958ADF08F4FC
:100990008FEF08950AD0C0CFB1DF28F0B6DF18F08E
:1009A000952309F0A2CFA7CFEBCFC7DFA8F39923F8
:1009B000D9F35523C9F3950F50E0551FAA27EE2709
:1009C000FF27BB2700240894679520F4E20FF31F4C
:1009D000B41F0A1E220F331F441FAA1F6695A9F7D2
:1009E000779530F4F30FB41F0A1E121E08F46395B6
:1009F000330F441FAA1F221F769599F7879520F47D
:100A0000B40F0A1E121E631F440FAA1F221F331F9A
:100A10008695A9F7862F712D602D11249F57504080
:100A20008AF0E1F088234AF0EE0FFF1FBB1F661F1C
:100A3000771F881F91505040A9F79E3F510570F0D5
:100A400054CF9ECF5F3FECF3983EDCF386957795CD
:100A50006795B795F795E7959F5FC1F7FE2B880FD0
:100A6000911D9695879597F9089597FB092E07266E
:100A70000AD077FD04D00CD006D000201AF470956F
:100A800061957F4F0895F6F7909581959F4F089552
:100A9000AA1BBB1B51E107C0AA1FBB1FA617B707A4
:100AA00010F0A61BB70B881F991F5A95A9F78095C0
:0C0AB0009095BC01CD010895F894FFCF93
:020ABC00000434
:00000001FF
